:020000020000FC
:100000005FEF5ABB60E06A30ECF73DD069309CF49A
:100010006830ACF46730BCF46630CCF46530DCF4A6
:100020006430ECF46330FCF462300CF561301CF5A4
:1000300060302CF5E8CF4FE64BBB6395E4CF4FE73C
:100040004BBB6395E0CF47E24BBB6395DCCF4DE7FD
:100050004BBB6395D8CF4DE64BBB6395D4CF46E6FB
:100060004BBB6395D0CF4FE44BBB6395CCCF4BE5F7
:100070004BBB6395C8CF46E04BBB6395C4CF4FE302
:100080004BBB6395C0CF1F932F933F9319E02CEB8D
:1000900034EC3A95F1F72A95D9F71A95C1F7000093
:0800A0003F912F911F9108957B
:00000001FF
